:100000000C94AB000C94C8000C94C8000C94C8006D
:100010000C94C8000C94C8000C94C8000C94C80040
:100020000C94C8000C94C8000C94C8000C94C80030
:100030000C94C8000C945A040C94C8000C94C8008A
:100040000C94C8000C94C8000C94C8000C94C80010
:100050000C94C8006E616E00696E660000407A10F4
:10006000F35A00A0724E18090010A5D4E80000E869
:100070007648170000E40B54020000CA9A3B0000C7
:1000800000E1F505000080969800000040420F0056
:100090000000A08601000000102700000000E80317
:1000A000000000006400000000000A0000000000E2
:1000B0000100000000002C76D888DC674F0823DFA1
:1000C000C1DFAE59E1B1B796E5E3E453C63AE65174
:1000D000997696E8E6C28426EB898C9B62ED407C9B
:1000E0006FFCEFBC9C9F40F2BAA56FA5F490055A37
:1000F0002AF75C936B6CF9676DC11BFCE0E40D475C
:10010000FEF520E6B500D0ED902E0300943577057E
:100110000080841E080000204E0A000000C80C3336
:100120003333330F986E12831141EF8D2114893BC5
:10013000E65516CFFEE6DB18D1844B381BF77C1D45
:10014000901DA4BBE424203284725E228100C9F198
:1001500024ECA1E53D2711241FBECFE5D8E0DEBF8A
:10016000CDBF10E0A0E6B0E0E6E4FDE002C00590FF
:100170000D92A637B107D9F720E0A6E7B0E001C09D
:100180001D92AD38B207E1F70E94AD040C94A106B0
:100190000C940000A3E1B0E0E0EDF0E00C94B504B5
:1001A0007C011B016A01FC0117821682838181FF99
:1001B00066C3BE016F5F7F4F4B01F7019381F10171
:1001C00093FD859193FF81911F01882309F453C307
:1001D000853239F493FD859193FF81911F0185321A
:1001E00039F4B70190E00E94E80556016501E5CFBA
:1001F00010E0512C20E02032A0F48B3269F030F472
:10020000803259F0833269F420612CC08D3239F08C
:10021000803339F4216026C02260246023C0286026
:1002200021C027FD27C030ED380F3A3078F426FF83
:1002300006C0FAE01F9F300D1124132F13C06AE08F
:10024000569E300D1124532E20620CC08E3221F4A4
:1002500026FD11C3206406C08C3611F4206802C04C
:10026000883641F4F10193FD859193FF81911F013F
:100270008111C1CF9BEB980F933018F42061805E01
:1002800006C09BE9980F933008F0AAC12F7E26FF85
:1002900016E02F73722E853621F4F22FF0647F2E34
:1002A00008C0863621F4622F6068762E02C01111D4
:1002B000115077FE07C01C3348F444244394410E88
:1002C00027E00BC0183030F4212F06C027E04CE3A4
:1002D000442E03C027E017E0412C560174E0A70E1E
:1002E000B11CF6016081718182819381042DA4018A
:1002F0000E94EC046C01098100FF02C003FF06C0EC
:1003000071FC07C072FC08C0612C08C03DE2632E7E
:1003100005C02BE2622E02C090E2692E802F8C7005
:1003200099F1662011F084E001C083E0851510F09A
:10033000512C0BC0581A73FC08C0B70180E290E042
:100340000E94E8055A94C9F7F3CF662029F0B70157
:10035000862D90E00E94E80503FD03C008E510E04B
:1003600002C004E510E0F72DF0717F2EF8018491B2
:10037000882309F476C271108052B70190E00E9480
:10038000E8050F5F1F4FF2CF77FE0FC04C0C04FF44
:1003900004C08A81813309F44A94141474F5F8E096
:1003A000F41578F588E0482E2CC076FC2AC0812F01
:1003B00090E08C159D059CF06CEFC6166FEFD6068D
:1003C00074F0772D7068772E0AC0E2E0F0E0EC0F51
:1003D000FD1FE10FF11D8081803319F411501111BF
:1003E000F4CF77FE0EC044244394410E812F90E059
:1003F000C816D9062CF41C1904C04424439401C027
:1004000010E077FE07C01C141D043CF496012F5F1A
:100410003F4F05C025E030E002C021E030E066201B
:1004200011F02F5F3F4F112331F0412F50E04F5F0C
:100430005F4F240F351F452D50E02417350714F466
:10044000521A01C0512C872D897049F4552039F07A
:10045000B70180E290E00E94E8055A94F7CF662049
:1004600029F0B701862D90E00E94E80573FC09C0D1
:10047000552039F0B70180E390E00E94E8055A94D6
:10048000F7CF77FE5FC09C2D8D2DD7FE02C090E088
:1004900080E0692E782E40E050E0C6018419910971
:1004A0009D878C87960126193709280D391D812FC4
:1004B00090E0EE27FF27E81BF90BFF87EE87FFEFA1
:1004C0006F167F0669F4B7018EE290E02B8B3A8BB2
:1004D000488B598B0E94E805598948893A892B89AC
:1004E000C614D70454F06C857D85661577052CF409
:1004F000F901E40FF51F818101C080E371E0671A03
:1005000071084F5F5F4FEE85FF856E167F066CF0BA
:10051000B70190E02B8B3A8B488B598B0E94E805F2
:100520002B893A8948895989CACF6C147D0439F4DA
:100530009A81963318F4953311F404FF81E3B701DF
:1005400090E04BC08A81813309F00F7EB70190E0C3
:100550000E94E805111105C074FE18C085E490E002
:1005600017C0B7018EE290E00E94E80582E06624A1
:100570006394680EF401E80FF11D8081B70190E0EB
:100580000E94E805115041F3862DF1CF85E690E0F9
:10059000B7010E94E805D7FC05C0C114D10439F4A5
:1005A00004FF05C0D194C194D1088DE201C08BE253
:1005B000B70190E00E94E80580E36AE0C616D10426
:1005C0002CF08F5FFAE0CF1AD108F7CFB70190E097
:1005D0000E94E805B701C601C0960E94E80541C126
:1005E000833631F0833779F0833509F058C021C064
:1005F000560172E0A70EB11CF6018081898301E0EB
:1006000010E0640114C05601F2E0AF0EB11CF60117
:10061000C080D18026FF03C0612F70E002C06FEF61
:100620007FEFC6012B8B0E94DD058C012B892F7774
:1006300015C05601F2E0AF0EB11CF601C080D180AA
:1006400026FF03C0612F70E002C06FEF7FEFC6018D
:100650002B8B0E94C4058C012B892068722E23FDF0
:100660001AC0852D90E008171907A8F4B70180E299
:1006700090E00E94E8055A94F4CFF60177FC85914A
:1006800077FE81916F01B70190E00E94E80551105B
:100690005A94015011090115110579F7E2C0843609
:1006A00011F0893651F5560127FF09C0F4E0AF0E6D
:1006B000B11CF60160817181828193810AC0F2E0F0
:1006C000AF0EB11CF60160817181882777FD80959E
:1006D000982F022F0F7697FF08C090958095709500
:1006E00061957F4F8F4F9F4F00682AE030E0A40153
:1006F0000E944306C82EC8183EC0022F853721F439
:100700000F7E2AE030E01DC0097F8F3691F018F48B
:10071000883559F0B0C0803719F0883711F0ABC078
:10072000006104FF09C0046007C024FF08C0066020
:1007300006C028E030E005C020E130E002C020E142
:1007400032E0560107FF09C0F4E0AF0EB11CF6011C
:10075000608171818281938108C0F2E0AF0EB11C8B
:10076000F6016081718180E090E0A4010E9443065F
:10077000C82EC8180F7706FF0BC0202F2E7FC1167A
:1007800050F404FF0AC002FD08C0202F2E7E05C0D1
:10079000DC2C202F03C0DC2C01C0D12E24FF0DC087
:1007A000FE01EC0DF11D8081803311F4297E09C01A
:1007B00022FF06C0D394D39404C0822F867809F018
:1007C000D39423FD13C020FF06C01C2DD51418F4AC
:1007D000150D1D19D52CD51468F4B70180E290E0F1
:1007E0002B8B0E94E805D3942B89F5CFD51410F4F8
:1007F0005D1801C0512C24FF12C0B70180E390E0C6
:100800002B8B0E94E8052B8922FF17C021FF03C014
:1008100088E590E002C088E790E0B7010CC0822F25
:10082000867859F021FD02C080E201C08BE227FDED
:100830008DE2B70190E00E94E805C11638F4B701D7
:1008400080E390E00E94E8051150F7CFCA94F401CC
:10085000EC0DF11D8081B70190E00E94E805C11008
:10086000F5CF552009F4C2CCB70180E290E00E9498
:10087000E8055A94F6CFF7018681978102C08FEF81
:100880009FEF6396E2E10C94D10490BD89B98EE8A4
:1008900080BD88E18AB9579A08955D9BFECF8CB9D7
:1008A00008955F9BFECF8CB108950E944D0480E0B7
:1008B00090E008951F920F920FB60F9211242F937C
:1008C0003F934F935F936F937F938F939F93AF93D8
:1008D000BF93EF93FF9380917600909177002CB1B6
:1008E000FC01E758FF4F20832D3009F560E670E0EA
:1008F00089E790E00E941A0642E050E06EE670E060
:1009000089E790E00E94CF05892B09F4979843E08E
:1009100050E061E770E089E790E00E94CF05892B05
:1009200009F4979A109277001092760005C001960C
:100930009093770080937600FF91EF91BF91AF91F4
:100940009F918F917F916F915F914F913F912F91E7
:100950000F900FBE0F901F90189583E290E00E94B9
:100960004504789480E881BBFFCF2F923F924F924D
:100970005F926F927F928F929F92AF92BF92CF922F
:10098000DF92EF92FF920F931F93CF93DF93CDB738
:10099000DEB7CA1BDB0B0FB6F894DEBF0FBECDBFB0
:1009A00009942A88398848885F846E847D848C8481
:1009B0009B84AA84B984C884DF80EE80FD800C818A
:1009C0001B81AA81B981CE0FD11D0FB6F894DEBF6D
:1009D0000FBECDBFED010895283008F027E0332782
:1009E000DA01990F311D87FD91600096610571054F
:1009F00039F432602E5F3D9330E32A95E1F7089594
:100A00009F3F30F080387105610509F03C5F3C5F25
:100A10003D93913008F08068911DDF93CF931F9331
:100A20000F93FF92EF92192F987F9695E92F969545
:100A30009695E90FFF27EA54FF4F99273327EE24B5
:100A4000FF24A701E70105900894079428F4360FC6
:100A5000E71EF81E491F511D660F771F881F991F3B
:100A60000694A1F70590079428F4E70EF81E491F95
:100A7000561FC11D770F881F991F661F0694A1F787
:100A80000590079428F4F80E491F561FC71FD11D63
:100A9000880F991F661F771F0694A1F7059007948A
:100AA00020F4490F561FC71FD81F990F661F771FC5
:100AB000881F0694A9F784911095177041F0D69578
:100AC000C79557954795F794E7941A95C1F7ECE5C4
:100AD000F0E0689415901591359165919591059088
:100AE0007FE27395E118F10A430B560BC90BD0094D
:100AF000C0F7E10CF11E431F561FC91FD01D7EF425
:100B0000703311F48A95E6CFE894015030F0080F65
:100B10000AF40027021708F4202F2395022F7A33B6
:100B200028F079E37D932A95E9F710C07D932A9503
:100B300089F6069497956795379517951794E11858
:100B4000F10A430B560BC90BD00998F023957E91FF
:100B500073957A3308F070E37C932013B8F77E9195
:100B600070617D9330F0839571E37D9370E32A95F6
:100B7000E1F71124EF90FF900F911F91CF91DF913A
:100B8000992787FD90950895FC010590615070406C
:100B90000110D8F7809590958E0F9F1F0895FB0147
:100BA000DC014150504030F08D910190801919F4D2
:100BB0000020B9F7881B990B0895FC016150704023
:100BC00001900110D8F7809590958E0F9F1F089582
:100BD0000F931F93CF93DF93182F092FEB018B8176
:100BE00081FD03C08FEF9FEF20C082FF10C04E81B8
:100BF0005F812C813D81421753077CF4E881F981A4
:100C00009F012F5F3F4F39832883108306C0E885FB
:100C1000F985812F0995892B29F72E813F812F5F37
:100C20003F4F3F832E83812F902FDF91CF911F91D4
:100C30000F910895EF92FF920F931F93CF93DF933D
:100C40008B01DB0113962C9121FF16C0EC01E12CE6
:100C5000F12C8991882371F0D8011896ED91FC91BF
:100C60001997B8010995892BA1F3EE24EA94FF2482
:100C7000FA94EFCFC70102C08FEF9FEFCDB7DEB779
:100C8000E6E00C94DD04FA01AA27283051F1203166
:100C900081F1E8946F936E7F6E5F7F4F8F4F9F4F10
:100CA000AF4FB1E03ED0B4E03CD0670F781F891F52
:100CB0009A1FA11D680F791F8A1F911DA11D6A0F20
:100CC000711D811D911DA11D20D009F468943F91D3
:100CD0002AE0269F11243019305D3193DEF6CF01D2
:100CE0000895462F4770405D4193B3E00FD0C9F798
:100CF000F6CF462F4F70405D4A3318F0495D31FD05
:100D00004052419302D0A9F7EACFB4E0A695979557
:100D1000879577956795BA95C9F70097610571052D
:100D200008959B01AC010A2E069457954795379577
:100D30002795BA95C9F7620F731F841F951FA01DD1
:060D40000895F894FFCFB6
:100D460000000002000000005504000000006F6E65
:060D5600006F666600005C
:00000001FF
