:100000000C942A000C9434000C9434000C943400AA
:100010000C9434000C9434000C9434000C94340090
:100020000C9434000C9434000C9434000C94340080
:100030000C9434000C9434000C9434000C94340070
:100040000C9434000C9434000C9434000C94340060
:100050000C94340011241FBECFE5D8E0DEBFCDBF25
:100060000E9445000C949F000C94000020E030E0BA
:100070002817390749F0ECECFAE03197F1F700C0A6
:1000800000002F5F3F4FF4CF08958FEF84BB11BA6C
:1000900082BB01E010E0CFEFD0E080E1F82E90E2EB
:1000A000E92E20E4D22E30E8C32E80992CC000FF28
:1000B00015C00F5F1F4FC5BACE010E943600D5BADA
:1000C000CE010E943600E5BACE010E943600F5BA94
:1000D000CE010E9436008099EECFE7CF0F5F1F4F11
:1000E000F5BACE010E943600E5BACE010E94360074
:1000F000D5BACE010E943600C5BACE010E943600A4
:100100008099ECCFD2CF819909C0C53F81E0D80753
:1001100014F46E960CC0C6E2D2E009C082990AC0FF
:10012000CE31D10514F06E9702C0C5E0D0E08AE070
:1001300090E002C08FEF90E00E943600B6CFF894B6
:02014000FFCFEF
:00000001FF
