:100000000C94AB000C94C8000C94C8000C94C8006D
:100010000C94C8000C94C8000C94C8000C94C80040
:100020000C94C8000C94C8000C94C8000C94C80030
:100030000C94C8000C94C8000C94C8000C94C80020
:100040000C94C8000C94C8000C94C8000C94C80010
:100050000C94C8006E616E00696E660000407A10F4
:10006000F35A00A0724E18090010A5D4E80000E869
:100070007648170000E40B54020000CA9A3B0000C7
:1000800000E1F505000080969800000040420F0056
:100090000000A08601000000102700000000E80317
:1000A000000000006400000000000A0000000000E2
:1000B0000100000000002C76D888DC674F0823DFA1
:1000C000C1DFAE59E1B1B796E5E3E453C63AE65174
:1000D000997696E8E6C28426EB898C9B62ED407C9B
:1000E0006FFCEFBC9C9F40F2BAA56FA5F490055A37
:1000F0002AF75C936B6CF9676DC11BFCE0E40D475C
:10010000FEF520E6B500D0ED902E0300943577057E
:100110000080841E080000204E0A000000C80C3336
:100120003333330F986E12831141EF8D2114893BC5
:10013000E65516CFFEE6DB18D1844B381BF77C1D45
:10014000901DA4BBE424203284725E228100C9F198
:1001500024ECA1E53D2711241FBECFE5D8E0DEBF8A
:10016000CDBF10E0A0E6B0E0EAE3F4E102C0059004
:100170000D92AA37B107D9F720E0AAE7B0E001C095
:100180001D92AA3BB207E1F70E94F6040C941B0AE9
:100190000C940000A3E1B0E0E0EDF0E00C94D20696
:1001A0007C011B016A01FC0117821682838181FF99
:1001B00066C3BE016F5F7F4F4B01F7019381F10171
:1001C00093FD859193FF81911F01882309F453C307
:1001D000853239F493FD859193FF81911F0185321A
:1001E00039F4B70190E00E948B0956016501E5CF13
:1001F00010E0512C20E02032A0F48B3269F030F472
:10020000803259F0833269F420612CC08D3239F08C
:10021000803339F4216026C02260246023C0286026
:1002200021C027FD27C030ED380F3A3078F426FF83
:1002300006C0FAE01F9F300D1124132F13C06AE08F
:10024000569E300D1124532E20620CC08E3221F4A4
:1002500026FD11C3206406C08C3611F4206802C04C
:10026000883641F4F10193FD859193FF81911F013F
:100270008111C1CF9BEB980F933018F42061805E01
:1002800006C09BE9980F933008F0AAC12F7E26FF85
:1002900016E02F73722E853621F4F22FF0647F2E34
:1002A00008C0863621F4622F6068762E02C01111D4
:1002B000115077FE07C01C3348F444244394410E88
:1002C00027E00BC0183030F4212F06C027E04CE3A4
:1002D000442E03C027E017E0412C560174E0A70E1E
:1002E000B11CF6016081718182819381042DA4018A
:1002F0000E948B086C01098100FF02C003FF06C049
:1003000071FC07C072FC08C0612C08C03DE2632E7E
:1003100005C02BE2622E02C090E2692E802F8C7005
:1003200099F1662011F084E001C083E0851510F09A
:10033000512C0BC0581A73FC08C0B70180E290E042
:100340000E948B095A94C9F7F3CF662029F0B701B0
:10035000862D90E00E948B0903FD03C008E510E0A4
:1003600002C004E510E0F72DF0717F2EF8018491B2
:10037000882309F476C271108052B70190E00E9480
:100380008B090F5F1F4FF2CF77FE0FC04C0C04FF9D
:1003900004C08A81813309F44A94141474F5F8E096
:1003A000F41578F588E0482E2CC076FC2AC0812F01
:1003B00090E08C159D059CF06CEFC6166FEFD6068D
:1003C00074F0772D7068772E0AC0E2E0F0E0EC0F51
:1003D000FD1FE10FF11D8081803319F411501111BF
:1003E000F4CF77FE0EC044244394410E812F90E059
:1003F000C816D9062CF41C1904C04424439401C027
:1004000010E077FE07C01C141D043CF496012F5F1A
:100410003F4F05C025E030E002C021E030E066201B
:1004200011F02F5F3F4F112331F0412F50E04F5F0C
:100430005F4F240F351F452D50E02417350714F466
:10044000521A01C0512C872D897049F4552039F07A
:10045000B70180E290E00E948B095A94F7CF6620A2
:1004600029F0B701862D90E00E948B0973FC09C02A
:10047000552039F0B70180E390E00E948B095A942F
:10048000F7CF77FE5FC09C2D8D2DD7FE02C090E088
:1004900080E0692E782E40E050E0C6018419910971
:1004A0009D878C87960126193709280D391D812FC4
:1004B00090E0EE27FF27E81BF90BFF87EE87FFEFA1
:1004C0006F167F0669F4B7018EE290E02B8B3A8BB2
:1004D000488B598B0E948B09598948893A892B8905
:1004E000C614D70454F06C857D85661577052CF409
:1004F000F901E40FF51F818101C080E371E0671A03
:1005000071084F5F5F4FEE85FF856E167F066CF0BA
:10051000B70190E02B8B3A8B488B598B0E948B094B
:100520002B893A8948895989CACF6C147D0439F4DA
:100530009A81963318F4953311F404FF81E3B701DF
:1005400090E04BC08A81813309F00F7EB70190E0C3
:100550000E948B09111105C074FE18C085E490E05B
:1005600017C0B7018EE290E00E948B0982E06624FA
:100570006394680EF401E80FF11D8081B70190E0EB
:100580000E948B09115041F3862DF1CF85E690E052
:10059000B7010E948B09D7FC05C0C114D10439F4FE
:1005A00004FF05C0D194C194D1088DE201C08BE253
:1005B000B70190E00E948B0980E36AE0C616D1047F
:1005C0002CF08F5FFAE0CF1AD108F7CFB70190E097
:1005D0000E948B09B701C601C0960E948B0941C1D8
:1005E000833631F0833779F0833509F058C021C064
:1005F000560172E0A70EB11CF6018081898301E0EB
:1006000010E0640114C05601F2E0AF0EB11CF60117
:10061000C080D18026FF03C0612F70E002C06FEF61
:100620007FEFC6012B8B0E946E098C012B892F77DF
:1006300015C05601F2E0AF0EB11CF601C080D180AA
:1006400026FF03C0612F70E002C06FEF7FEFC6018D
:100650002B8B0E9463098C012B892068722E23FD4D
:100660001AC0852D90E008171907A8F4B70180E299
:1006700090E00E948B095A94F4CFF60177FC8591A3
:1006800077FE81916F01B70190E00E948B095110B4
:100690005A94015011090115110579F7E2C0843609
:1006A00011F0893651F5560127FF09C0F4E0AF0E6D
:1006B000B11CF60160817181828193810AC0F2E0F0
:1006C000AF0EB11CF60160817181882777FD80959E
:1006D000982F022F0F7697FF08C090958095709500
:1006E00061957F4F8F4F9F4F00682AE030E0A40153
:1006F0000E94BD09C82EC8183EC0022F853721F4BC
:100700000F7E2AE030E01DC0097F8F3691F018F48B
:10071000883559F0B0C0803719F0883711F0ABC078
:10072000006104FF09C0046007C024FF08C0066020
:1007300006C028E030E005C020E130E002C020E142
:1007400032E0560107FF09C0F4E0AF0EB11CF6011C
:10075000608171818281938108C0F2E0AF0EB11C8B
:10076000F6016081718180E090E0A4010E94BD09E2
:10077000C82EC8180F7706FF0BC0202F2E7FC1167A
:1007800050F404FF0AC002FD08C0202F2E7E05C0D1
:10079000DC2C202F03C0DC2C01C0D12E24FF0DC087
:1007A000FE01EC0DF11D8081803311F4297E09C01A
:1007B00022FF06C0D394D39404C0822F867809F018
:1007C000D39423FD13C020FF06C01C2DD51418F4AC
:1007D000150D1D19D52CD51468F4B70180E290E0F1
:1007E0002B8B0E948B09D3942B89F5CFD51410F451
:1007F0005D1801C0512C24FF12C0B70180E390E0C6
:100800002B8B0E948B092B8922FF17C021FF03C06D
:1008100088E590E002C088E790E0B7010CC0822F25
:10082000867859F021FD02C080E201C08BE227FDED
:100830008DE2B70190E00E948B09C11638F4B70130
:1008400080E390E00E948B091150F7CFCA94F40125
:10085000EC0DF11D8081B70190E00E948B09C11061
:10086000F5CF552009F4C2CCB70180E290E00E9498
:100870008B095A94F6CFF7018681978102C08FEFDA
:100880009FEF6396E2E10C94EE06DA98DB9A2BB3C5
:10089000982F907F2F70922B9BBBECECFAE0319756
:1008A000F1F700C00000DB98ECECFAE03197F1F7CB
:1008B00000C00000DB9A2BB3F0E18F9FC001112430
:1008C0002F70282B2BBB8CEC9AE00197F1F700C01E
:1008D0000000DB98ECECFAE03197F1F700C0000083
:1008E00008958FEF8ABB83E30E94450482E30E9450
:1008F000450488E20E94450488E00E94450481E0A6
:100900000E94450486E00E9445048FE00C94450453
:10091000DA9ADB9A2BB3982F907F2F70922B9BBB88
:10092000ECECFAE03197F1F700C00000DB98ECEC5A
:10093000FAE03197F1F700C00000DB9A2BB3F0E149
:100940008F9FC00111242F70282B2BBB8CEC9AE0B9
:100950000197F1F700C00000DB98ECECFAE031976A
:10096000F1F700C000000895805890E4699F800D61
:1009700011240C9445040F931F93CF93DF9300D061
:10098000CDB7DEB749835A830E94B4044981042F4E
:100990005A81152FF80181918F01882319F00E9447
:1009A0008804F8CF0F900F90DF91CF911F910F9196
:1009B000089581E00C9445040E94880480E090E052
:1009C000089590BD89B98EE880BD88E18AB9579AAB
:1009D00008955D9BFECF8CB908955F9BFECF8CB1CF
:1009E00008950E94E90480E090E0089580E090E09E
:1009F000A0EEB1E48093800090938100A0938200E8
:100A0000B093830080E090E0A0EFB1E48093840095
:100A100090938500A0938600B093870083E290E0D6
:100A20000E94E1047894A198A298A398A498A99808
:100A3000AA98AB98AC98A09A0E9471048CE00E948E
:100A400045040E94C6060E94D9040E94D904A898B1
:100A5000C0E6D0E025E7222E20E0322E04E710E0A9
:100A6000C12CD12C3CE5E32E32E4F32EC49AC49879
:100A700081E00E94CD0680EA0E94CD06B82E80E07B
:100A80000E94CD06C49A6B2D6F7070E0762F66279A
:100A9000682B80E090E00E94720720E030E040EA9E
:100AA00050E40E94280820E030E040E859E30E942A
:100AB000280820E030E048EC52E40E9428086093C7
:100AC0007C0070937D0080937E0090937F0060E0B7
:100AD00080E00E94B40480917F008F9380917E001B
:100AE0008F9380917D008F9380917C008F93AEE6F1
:100AF000B0E0BF93AF93DF93CF930E9479098FED5E
:100B00000E94880460E670E083E490E00E948B0914
:100B100061E080E00E94B404809183008F93809113
:100B200082008F93809181008F93809180008F93BA
:100B30003F922F92DF93CF930E9479098FED0E940D
:100B4000880460E670E083E490E00E948B0961E035
:100B500088E00E94B404809187008F938091860082
:100B60008F93809185008F93809184008F931F9342
:100B70000F93DF93CF930E9479098FED0E94880431
:100B800060E670E083E490E00E948B099FEFAFE5A0
:100B9000B3E09150A040B040E1F700C000004090A9
:100BA000800050908100609082007090830080905F
:100BB000840090908500A0908600B09087008DB74B
:100BC0009EB748960FB6F8949EBF0FBE8DBFA50185
:100BD0009401C301B2010E946E0787FF9CC09999DE
:100BE00020C020E030E040E85FE3C301B2010E9492
:100BF0000907609380007093810080938200909336
:100C0000830020E030E04CE552EC0E946E0718169D
:100C100044F0C0928000D0928100E0928200F09275
:100C200083009A992AC020E030E040E85FE36091B9
:100C300080007091810080918200909183000E94D9
:100C40000A076093800070938100809382009093E4
:100C5000830020E030E046E153E40E9424081816A7
:100C600064F480E090E0A6E1B3E480938000909388
:100C70008100A0938200B09383009B9920C020E064
:100C800030E040E85FE3C501B4010E9409076093CA
:100C9000840070938500809386009093870020E005
:100CA00030E04CE552EC0E946E07181644F0C092FA
:100CB0008400D0928500E0928600F09287009C9993
:100CC0002AC020E030E040E85FE36091840070914A
:100CD000850080918600909187000E940A076093AA
:100CE000840070938500809386009093870020E0B5
:100CF00030E046E153E40E942408181664F480E0D2
:100D000090E0A6E1B3E48093840090938500A093E3
:100D10008600B093870080907C0090907D00A0902A
:100D20007E00B0907F002091800030918100409142
:100D3000820050918300C501B4010E946E0787FFB5
:100D40000EC0209184003091850040918600509122
:100D50008700C501B4010E946E0787FDA898209105
:100D60008400309185004091860050918700609109
:100D70007C0070917D0080917E0090917F000E94A8
:100D8000240818160CF072CEA89A70CE87B3806B28
:100D900087BB8DB182658DB908958FB9779BFECFE2
:100DA0008FB108952F923F924F925F926F927F92F0
:100DB0008F929F92AF92BF92CF92DF92EF92FF926B
:100DC0000F931F93CF93DF93CDB7DEB7CA1BDB0B17
:100DD0000FB6F894DEBF0FBECDBF09942A883988BC
:100DE00048885F846E847D848C849B84AA84B984C3
:100DF000C884DF80EE80FD800C811B81AA81B981CF
:100E0000CE0FD11D0FB6F894DEBF0FBECDBFED01E2
:100E100008955058BB27AA270ED0DCC0CDD030F0A3
:100E2000D2D020F031F49F3F11F41EF4C2C00EF472
:100E3000E095E7FBB8C0E92FDED080F3BA17620770
:100E400073078407950718F071F49EF5F6C00EF449
:100E5000E0950B2EBA2FA02D0B01B90190010C01CA
:100E6000CA01A0011124FF27591B99F0593F50F4E2
:100E7000503E68F11A16F040A22F232F342F44273A
:100E8000585FF3CF469537952795A795F040539532
:100E9000C9F77EF41F16BA0B620B730B840BBAF002
:100EA0009150A1F0FF0FBB1F661F771F881FC2F76D
:100EB0000EC0BA0F621F731F841F48F48795779581
:100EC0006795B795F7959E3F08F0B3CF9395880F38
:100ED00008F09927EE0F97958795089540D008F46C
:100EE00081E00895E89409C097FB3EF490958095C1
:100EF000709561957F4F8F4F9F4F9923A9F0F92FE0
:100F000096E9BB279395F695879577956795B7955D
:100F1000F111F8CFFAF4BB0F11F460FF1BC06F5F43
:100F20007F4F8F4F9F4F16C0882311F096E911C055
:100F3000772321F09EE8872F762F05C0662371F076
:100F400096E8862F70E060E02AF09A95660F771F8A
:100F5000881FDAF7880F9695879597F90895990F66
:100F60000008550FAA0BE0E8FEEF16161706E80773
:100F7000F907C0F012161306E407F50798F0621B94
:100F8000730B840B950B39F40A2661F0232B242B69
:100F9000252B21F408950A2609F4A140A6958FEF88
:100FA000811D811D089597F99F6780E870E060E0DA
:100FB00008959FEF80EC089500240A9416161706F2
:100FC00018060906089500240A941216130614063A
:100FD00005060895092E0394000C11F4882352F09D
:100FE000BB0F40F4BF2B11F460FF04C06F5F7F4F55
:100FF0008F4F9F4F089557FD9058440F551F59F03C
:101000005F3F71F04795880F97FB991F61F09F3FF5
:1010100079F087950895121613061406551FF2CF1E
:101020004695F1DF08C0161617061806991FF1CF6E
:1010300086957105610508940895E894BB27662795
:101040007727CB0197F908958ADF08F48FEF089589
:101050000BD0C0CFB1DF28F0B6DF18F0952309F030
:10106000A2CFA7CF1124EACFC6DFA0F3959FD1F37B
:10107000950F50E0551F629FF001729FBB27F00D46
:10108000B11D639FAA27F00DB11DAA1F649F66279B
:10109000B00DA11D661F829F2227B00DA11D621FEA
:1010A000739FB00DA11D621F839FA00D611D221FA4
:1010B000749F3327A00D611D231F849F600D211D88
:1010C000822F762F6A2F11249F5750408AF0E1F02B
:1010D00088234AF0EE0FFF1FBB1F661F771F881F74
:1010E00091505040A9F79E3F510570F05CCFA6CFBC
:1010F0005F3FECF3983EDCF3869577956795B7955F
:10110000F795E7959F5FC1F7FE2B880F911D969588
:10111000879597F90895283008F027E03327DA01FA
:10112000990F311D87FD916000966105710539F4B5
:1011300032602E5F3D9330E32A95E1F708959F3F9B
:1011400030F080387105610509F03C5F3C5F3D93EC
:10115000913008F08068911DDF93CF931F930F9318
:10116000FF92EF92192F987F9695E92F9695969575
:10117000E90FFF27EA54FF4F99273327EE24FF2476
:10118000A701E70105900894079428F4360FE71E9D
:10119000F81E491F511D660F771F881F991F06945F
:1011A000A1F70590079428F4E70EF81E491F561F73
:1011B000C11D770F881F991F661F0694A1F7059020
:1011C000079428F4F80E491F561FC71FD11D880F1A
:1011D000991F661F771F0694A1F70590079420F4C6
:1011E000490F561FC71FD81F990F661F771F881FEB
:1011F0000694A9F784911095177041F0D695C7957C
:1012000057954795F794E7941A95C1F7ECE5F0E008
:1012100068941590159135916591959105907FE2AF
:101220007395E118F10A430B560BC90BD009C0F7AF
:10123000E10CF11E431F561FC91FD01D7EF47033F1
:1012400011F48A95E6CFE894015030F0080F0AF4C3
:101250000027021708F4202F2395022F7A3328F055
:1012600079E37D932A95E9F710C07D932A9589F655
:10127000069497956795379517951794E118F10A95
:10128000430B560BC90BD00998F023957E917395AB
:101290007A3308F070E37C932013B8F77E91706185
:1012A0007D9330F0839571E37D9370E32A95E1F7A8
:1012B0001124EF90FF900F911F91CF91DF9199270B
:1012C00087FD90950895FC010590615070400110D4
:1012D000D8F7809590958E0F9F1F0895FC0161505F
:1012E000704001900110D8F7809590958E0F9F1F48
:1012F0000895A0E0B0E0EFE7F9E00C94E206AE015B
:10130000475F5F4F6F8178858D819E810E94CA0003
:10131000E2E00C94FE060F931F93CF93DF93182FF8
:10132000092FEB018B8181FD03C08FEF9FEF20C060
:1013300082FF10C04E815F812C813D81421753078F
:101340007CF4E881F9819F012F5F3F4F3983288327
:10135000108306C0E885F985812F0995892B29F727
:101360002E813F812F5F3F4F3F832E83812F902F10
:10137000DF91CF911F910F910895FA01AA2728308C
:1013800051F1203181F1E8946F936E7F6E5F7F4F52
:101390008F4F9F4FAF4FB1E03ED0B4E03CD0670FCE
:1013A000781F891F9A1FA11D680F791F8A1F911D21
:1013B000A11D6A0F711D811D911DA11D20D009F471
:1013C00068943F912AE0269F11243019305D3193B3
:1013D000DEF6CF010895462F4770405D4193B3E09C
:1013E0000FD0C9F7F6CF462F4F70405D4A3318F043
:1013F000495D31FD4052419302D0A9F7EACFB4E0F4
:10140000A6959795879577956795BA95C9F70097AB
:101410006105710508959B01AC010A2E069457954C
:10142000479537952795BA95C9F7620F731F841FA3
:0A143000951FA01D0895F894FFCF4A
:10143A000000000200000000DC0400000000546507
:0A144A006D70203D20252E31660054
:00000001FF
