:100000000C94AB000C94C8000C94C8000C94C8006D
:100010000C94C8000C94C8000C94C8000C94C80040
:100020000C94C8000C94C8000C94C8000C94C80030
:100030000C94C8000C94C8000C94C8000C94C80020
:100040000C94C8000C94C8000C94C8000C94C80010
:100050000C94C8006E616E00696E660000407A10F4
:10006000F35A00A0724E18090010A5D4E80000E869
:100070007648170000E40B54020000CA9A3B0000C7
:1000800000E1F505000080969800000040420F0056
:100090000000A08601000000102700000000E80317
:1000A000000000006400000000000A0000000000E2
:1000B0000100000000002C76D888DC674F0823DFA1
:1000C000C1DFAE59E1B1B796E5E3E453C63AE65174
:1000D000997696E8E6C28426EB898C9B62ED407C9B
:1000E0006FFCEFBC9C9F40F2BAA56FA5F490055A37
:1000F0002AF75C936B6CF9676DC11BFCE0E40D475C
:10010000FEF520E6B500D0ED902E0300943577057E
:100110000080841E080000204E0A000000C80C3336
:100120003333330F986E12831141EF8D2114893BC5
:10013000E65516CFFEE6DB18D1844B381BF77C1D45
:10014000901DA4BBE424203284725E228100C9F198
:1001500024ECA1E53D2711241FBECFE5D8E0DEBF8A
:10016000CDBF10E0A0E6B0E0ECEEF6E202C00590F4
:100170000D92A83CB107D9F720E0A8ECB0E001C08F
:100180001D92A13DB207E1F70E942F0F0C9474134A
:100190000C940000A3E1B0E0E0EDF0E00C946210FC
:1001A0007C011B016A01FC0117821682838181FF99
:1001B00066C3BE016F5F7F4F4B01F7019381F10171
:1001C00093FD859193FF81911F01882309F453C307
:1001D000853239F493FD859193FF81911F0185321A
:1001E00039F4B70190E00E94991256016501E5CFFC
:1001F00010E0512C20E02032A0F48B3269F030F472
:10020000803259F0833269F420612CC08D3239F08C
:10021000803339F4216026C02260246023C0286026
:1002200021C027FD27C030ED380F3A3078F426FF83
:1002300006C0FAE01F9F300D1124132F13C06AE08F
:10024000569E300D1124532E20620CC08E3221F4A4
:1002500026FD11C3206406C08C3611F4206802C04C
:10026000883641F4F10193FD859193FF81911F013F
:100270008111C1CF9BEB980F933018F42061805E01
:1002800006C09BE9980F933008F0AAC12F7E26FF85
:1002900016E02F73722E853621F4F22FF0647F2E34
:1002A00008C0863621F4622F6068762E02C01111D4
:1002B000115077FE07C01C3348F444244394410E88
:1002C00027E00BC0183030F4212F06C027E04CE3A4
:1002D000442E03C027E017E0412C560174E0A70E1E
:1002E000B11CF6016081718182819381042DA4018A
:1002F0000E9499116C01098100FF02C003FF06C032
:1003000071FC07C072FC08C0612C08C03DE2632E7E
:1003100005C02BE2622E02C090E2692E802F8C7005
:1003200099F1662011F084E001C083E0851510F09A
:10033000512C0BC0581A73FC08C0B70180E290E042
:100340000E9499125A94C9F7F3CF662029F0B70199
:10035000862D90E00E94991203FD03C008E510E08D
:1003600002C004E510E0F72DF0717F2EF8018491B2
:10037000882309F476C271108052B70190E00E9480
:1003800099120F5F1F4FF2CF77FE0FC04C0C04FF86
:1003900004C08A81813309F44A94141474F5F8E096
:1003A000F41578F588E0482E2CC076FC2AC0812F01
:1003B00090E08C159D059CF06CEFC6166FEFD6068D
:1003C00074F0772D7068772E0AC0E2E0F0E0EC0F51
:1003D000FD1FE10FF11D8081803319F411501111BF
:1003E000F4CF77FE0EC044244394410E812F90E059
:1003F000C816D9062CF41C1904C04424439401C027
:1004000010E077FE07C01C141D043CF496012F5F1A
:100410003F4F05C025E030E002C021E030E066201B
:1004200011F02F5F3F4F112331F0412F50E04F5F0C
:100430005F4F240F351F452D50E02417350714F466
:10044000521A01C0512C872D897049F4552039F07A
:10045000B70180E290E00E9499125A94F7CF66208B
:1004600029F0B701862D90E00E94991273FC09C013
:10047000552039F0B70180E390E00E9499125A9418
:10048000F7CF77FE5FC09C2D8D2DD7FE02C090E088
:1004900080E0692E782E40E050E0C6018419910971
:1004A0009D878C87960126193709280D391D812FC4
:1004B00090E0EE27FF27E81BF90BFF87EE87FFEFA1
:1004C0006F167F0669F4B7018EE290E02B8B3A8BB2
:1004D000488B598B0E949912598948893A892B89EE
:1004E000C614D70454F06C857D85661577052CF409
:1004F000F901E40FF51F818101C080E371E0671A03
:1005000071084F5F5F4FEE85FF856E167F066CF0BA
:10051000B70190E02B8B3A8B488B598B0E94991234
:100520002B893A8948895989CACF6C147D0439F4DA
:100530009A81963318F4953311F404FF81E3B701DF
:1005400090E04BC08A81813309F00F7EB70190E0C3
:100550000E949912111105C074FE18C085E490E044
:1005600017C0B7018EE290E00E94991282E06624E3
:100570006394680EF401E80FF11D8081B70190E0EB
:100580000E949912115041F3862DF1CF85E690E03B
:10059000B7010E949912D7FC05C0C114D10439F4E7
:1005A00004FF05C0D194C194D1088DE201C08BE253
:1005B000B70190E00E94991280E36AE0C616D10468
:1005C0002CF08F5FFAE0CF1AD108F7CFB70190E097
:1005D0000E949912B701C601C0960E94991241C1AA
:1005E000833631F0833779F0833509F058C021C064
:1005F000560172E0A70EB11CF6018081898301E0EB
:1006000010E0640114C05601F2E0AF0EB11CF60117
:10061000C080D18026FF03C0612F70E002C06FEF61
:100620007FEFC6012B8B0E947C128C012B892F77C8
:1006300015C05601F2E0AF0EB11CF601C080D180AA
:1006400026FF03C0612F70E002C06FEF7FEFC6018D
:100650002B8B0E9471128C012B892068722E23FD36
:100660001AC0852D90E008171907A8F4B70180E299
:1006700090E00E9499125A94F4CFF60177FC85918C
:1006800077FE81916F01B70190E00E94991251109D
:100690005A94015011090115110579F7E2C0843609
:1006A00011F0893651F5560127FF09C0F4E0AF0E6D
:1006B000B11CF60160817181828193810AC0F2E0F0
:1006C000AF0EB11CF60160817181882777FD80959E
:1006D000982F022F0F7697FF08C090958095709500
:1006E00061957F4F8F4F9F4F00682AE030E0A40153
:1006F0000E941613C82EC8183EC0022F853721F459
:100700000F7E2AE030E01DC0097F8F3691F018F48B
:10071000883559F0B0C0803719F0883711F0ABC078
:10072000006104FF09C0046007C024FF08C0066020
:1007300006C028E030E005C020E130E002C020E142
:1007400032E0560107FF09C0F4E0AF0EB11CF6011C
:10075000608171818281938108C0F2E0AF0EB11C8B
:10076000F6016081718180E090E0A4010E9416137F
:10077000C82EC8180F7706FF0BC0202F2E7FC1167A
:1007800050F404FF0AC002FD08C0202F2E7E05C0D1
:10079000DC2C202F03C0DC2C01C0D12E24FF0DC087
:1007A000FE01EC0DF11D8081803311F4297E09C01A
:1007B00022FF06C0D394D39404C0822F867809F018
:1007C000D39423FD13C020FF06C01C2DD51418F4AC
:1007D000150D1D19D52CD51468F4B70180E290E0F1
:1007E0002B8B0E949912D3942B89F5CFD51410F43A
:1007F0005D1801C0512C24FF12C0B70180E390E0C6
:100800002B8B0E9499122B8922FF17C021FF03C056
:1008100088E590E002C088E790E0B7010CC0822F25
:10082000867859F021FD02C080E201C08BE227FDED
:100830008DE2B70190E00E949912C11638F4B70119
:1008400080E390E00E9499121150F7CFCA94F4010E
:10085000EC0DF11D8081B70190E00E949912C1104A
:10086000F5CF552009F4C2CCB70180E290E00E9498
:1008700099125A94F6CFF7018681978102C08FEFC3
:100880009FEF6396E2E10C947E10FF920F931F930B
:10089000CF93DF93C82FD42F152F062FF72E87FF66
:1008A00009C040E050E0BA0187E70E944504823069
:1008B00040F5CF77C29A0E94250EC2980E94250E5D
:1008C0008C2F0E942B0E8F2D0E942B0E802F0E94AA
:1008D0002B0E812F0E942B0E8D2F0E942B0EC034C9
:1008E00021F0C83421F081E003C085E901C087E828
:1008F0000E942B0ECAE00E94250E87FF02C0C15045
:10090000D1F7DF91CF911F910F91FF900895CF9272
:10091000DF92EF92FF920F931F93CF93DF93EC013F
:1009200079018091CA0083FD07C029E0440F551F5B
:10093000661F771F2A95D1F781E50E944504882319
:1009400011F0C1E03DC090E4C92E9CE9D92E0E946F
:10095000250E8F3F39F481E0C81AD108C114D104A3
:10096000B1F7EFCF8E3F69F782E0C82EDC2CC01ABA
:10097000D10ACE18DF08E114F10419F4209739F4F4
:100980000FC00E94250E81E0E81AF108F4CF0E9402
:10099000250E89930150110901151105C1F707C0F2
:1009A0000E94250E0150110901151105C9F70E9479
:1009B000250E81E0C81AD108C114D104C1F7C0E0E6
:1009C000C29A0E94250E8C2FDF91CF911F910F911B
:1009D000FF90EF90DF90CF9008950F931F93CF93E8
:1009E000DF930097E1F08A01EC01080F191F0C1743
:1009F0001D0709F45EC08091C8009091C900892B41
:100A000009F457C089910E942B0E8091C8009091E3
:100A1000C90001979093C9008093C800E8CF4115A1
:100A2000510561057105E9F08091CA0083FD07C099
:100A300039E0440F551F661F771F3A95D1F788E5B7
:100A40000E944504811137C08FEF0E942B0E8EEF5C
:100A50000E942B0E80E092E09093C9008093C80022
:100A600028C0C091C800D091C900CE3F8FEFD807F1
:100A700029F080E00E942B0E2197F7CF0E94250ECF
:100A80008F71853011F011E010C0C8E8D3E10E94E9
:100A9000250E8F3F31F02097B1F30E941F0E219752
:100AA000F6CF11E0CD2B09F010E0C29A0E94250E7E
:100AB00003C010E001C011E0812FDF91CF911F91A1
:100AC0000F910895EF92FF920F931F93CF93DF93AF
:100AD00000D000D0CDB7DEB78091CA00882349F09E
:100AE000C29907C040E050E0BA0180E090E00E9467
:100AF000ED040E94190EC29A2FEF8FED90E1215064
:100B000080409040E1F700C000001AE00E94250EEE
:100B10001150E1F740E050E0BA0180E40E94450442
:100B2000813009F05FC04AEA51E060E070E088E49B
:100B30000E944504813059F57E01E5E0EE0EF11C7E
:100B40008E010F5F1F4F0E94250EF80181938F01C8
:100B5000EE15FF05C1F78B81813009F043C08C8110
:100B60008A3A09F03FC000E117E240E050E060E05F
:100B700070E489EE0E944504882309F43EC00E9477
:100B80001F0E015011090115110579F72BC040E026
:100B900050E0BA0189EE0E944504823028F462E0F8
:100BA000F62E79EEE72E04C0FF24F39451E4E52EEF
:100BB00000E117E240E050E0BA018E2D0E944504AA
:100BC000882341F00E941F0E0150110901151105E3
:100BD00089F708C040E052E060E070E080E50E94E4
:100BE00045048111F12CF092CA00C29A0E94250E90
:100BF00081E0FF20F1F080E01CC040E050E0BA014D
:100C00008AE70E9445048111EDCF8E010F5F1F4FCF
:100C10000E94250EF80181938F01EE15FF05C1F7A3
:100C2000898186FF03C0ECE0FE2EDDCF44E0F42E88
:100C3000DACF0F900F900F900F90DF91CF911F910F
:100C40000F91FF90EF9008950F931F939B01AC01BC
:100C5000E091CB00F091CC002250310941095109BB
:100C600086819781A085B1850297A109B1092817CE
:100C700039074A075B0768F4A281B0E00E94571069
:100C80000289138924893589600F711F821F931F80
:100C900003C060E070E0CB011F910F9108950F93A6
:100CA0001F93CF93DF93EC01E091CB00F091CC0048
:100CB000198218826C817D818E819F8161307105DE
:100CC0008105910559F106811781208531856017CD
:100CD00071078207930710F561157105810591056C
:100CE00039F42081233021F46685778580899189C4
:100CF000688779878A879B876115710581059105CA
:100D000019F00E94240604C0668577858089918940
:100D10006C877D878E879F8780E001C081E0DF91AF
:100D2000CF911F910F9108950F931F93CF93DF934E
:100D300000D000D0CDB7DEB7E091CB00F091CC0071
:100D4000623071058105910508F453C00681178151
:100D500020853185601771078207930708F049C025
:100D60002081223019F02330F1F043C09B0133275A
:100D7000220F331F472F582F692F7727828593859E
:100D8000A485B585480F591F6A1F7B1F02E010E03C
:100D9000CE0101960E94870481112BC069817A815E
:100DA00080E090E02AC09B012F773327220F331F6A
:100DB000220F331FAB01BC01A7E0769567955795CD
:100DC0004795AA95D1F782859385A485B585480F67
:100DD000591F6A1F7B1F04E010E0CE0101960E949C
:100DE0008704811106C069817A818B819C819F7003
:100DF00004C061E070E080E090E00F900F900F90F1
:100E00000F90DF91CF911F910F910895CF92DF92B4
:100E1000EF92FF920F931F93CF93DF93EC01E0903B
:100E2000CB00F090CC00088119810F5F1F4F011596
:100E3000110511F483E054C08C859D85AE85BF8576
:100E40000097A105B105B1F398012F703327232B2B
:100E500009F041C00196A11DB11D8C879D87AE8709
:100E6000BF87688579858A859B85F701611571053E
:100E70008105910531F48481958108171907D0F611
:100E80002AC0228130E021503109A801E4E05695C2
:100E90004795EA95E1F724233523232BE1F40E94BB
:100EA00094066230710581059105C8F0F701C6808E
:100EB000D780E084F1846C157D058E059F0508F0D0
:100EC000B9CF688779878A879B870E9424066C87B9
:100ED0007D878E879F871983088380E001C081E02A
:100EE000DF91CF911F910F91FF90EF90DF90CF9006
:100EF0000895CF92DF92EF92FF920F931F93CF93BB
:100F0000DF93EC016A017B0102E010E02EEF31E09B
:100F10000E948704811127C08881998185359A4A6A
:100F200021F526E330E0B701A601CE010E94870437
:100F3000811105C08881998186349144C1F002E015
:100F400010E022E530E0B701A601CE010E9487043F
:100F5000811107C081E0288139812634314441F470
:100F600006C081E005C083E003C082E001C080E0EC
:100F7000DF91CF911F910F91FF90EF90DF90CF9075
:100F80000895BF92CF92DF92EF92FF920F931F933B
:100F9000CF93DF93EC017B016A01FA0180814F5FFF
:100FA0005F4F8032C9F38F3209F46A011C821D82BF
:100FB0001E821F82F6018081813230F4CE010E94B0
:100FC0004F06F701108294C010E2B12EEA81FB8136
:100FD000DF01CF010B96A817B90711F0BD92FBCF27
:100FE00090E080E028E031E0380FD601A80FB11D75
:100FF0008C91813298F08F3289F08E3209F456C08C
:10100000921760F44FE9480F4A3108F48052DF012B
:10101000A90FB11D8C939F5F832FE5CFC30ED11C09
:1010200091E0813208F090E09387CE010E944F0654
:1010300081112FC0288139812F703327B5E0220F0D
:10104000331FBA95E1F74C855D856E857F8500E29B
:1010500010E0C7010E948704811124C0F70180813C
:101060008823C9F0438543FD10C00A811B81C70155
:10107000D8019801255F3F4FA217B307E9F0FC01A3
:101080006191CF015D916517B9F3CE010E9406070A
:10109000CFCF833069F5EA81FB818385882321F0F6
:1010A00083E026C081E024C084E022C0283009F01B
:1010B000B5CF98E02BE0B0CFF8018385811117C040
:1010C00044FFF2CFF7014489558960E070E0BA012E
:1010D00055274427828D938DA0E0B0E0482B592BF3
:1010E0006A2B7B2B4C835D836E837F836FCF80E085
:1010F000DF91CF911F910F91FF90EF90DF90CF90F4
:10110000BF9008954F925F926F927F928F929F92BD
:10111000AF92BF92CF92DF92EF92FF920F931F9305
:10112000CF93DF93CDB7DEB7A8970FB6F894DEBFA5
:101130000FBECDBF5C011092CC001092CB00009787
:1011400009F4E2C00E94620580FDE0C040E050E08A
:10115000BA01CE0101960E9479078130F9F400E1CD
:1011600010E02EEB31E040E050E0BA01CE010196F4
:101170000E948704882311F081E0C9C08D8181110C
:1011800002C087E0C4C049845A846B847C84B30164
:10119000A201CE0101960E94790703C0412C512C77
:1011A0003201833049F38111ECCF04E210E02DE0ED
:1011B00030E0B301A201CE0101960E9487048111A3
:1011C000DBCF2A853B8540E050E021153105410504
:1011D000510521F4288D398D4A8D5B8DAC81B0E0AD
:1011E0000E9457106B017C018A819B81AC0160E0F9
:1011F00070E0440E551E661E771ED5011A964D925C
:101200005D926D927C921D97E9811296EC931297F4
:101210002D813E8115963C932E9314978F8198854E
:10122000A0E0B0E00097A105B10521F48C899D896B
:10123000AE89BF89490104E0969487940A95E1F745
:10124000840120E030E00DA31EA32FA338A78C015A
:101250009D01041B150B260B370BC901B8016C1936
:101260007D098E099F090DA11EA12FA138A5601B24
:10127000710B820B930B2E2F30E040E050E00E9468
:1012800035102E5F3F4F4F4F5F4FD50116962D9370
:101290003D934D935C931997273FBFE03B07410572
:1012A000510508F46ECF273F3F4F4105510510F41B
:1012B00082E001C083E0D5018C93833029F488A1BA
:1012C00099A1AAA1BBA106C0D701C601840D951D95
:1012D000A61DB71DF50186879787A08BB18B0DA141
:1012E0001EA12FA138A5400E511E621E731E4C0C6C
:1012F0005D1C6E1C7F1C428A538A648A758A118227
:10130000B092CC00A092CB0080E001C082E0A89611
:101310000FB6F894DEBF0FBECDBFDF91CF911F9106
:101320000F91FF90EF90DF90CF90BF90AF909F9084
:101330008F907F906F905F904F9008950F931F93C1
:10134000CF93DF93CDB7DEB7EC970FB6F894DEBF3F
:101350000FBECDBF0091CB001091CC00011511053F
:10136000D9F1F80111829E012F5C3F4F3CA32BA3C2
:10137000AC01BE016F5F7F4FCE0181960E94C10715
:1013800081112DC08981882349F18C8584FD26C077
:101390008D899E89A0E0B0E0DC01992788274B8DDC
:1013A0005C8D60E070E0842B952BA62BB72BF801A9
:1013B000868F978FA0A3B1A38D8D9E8DAF8DB8A181
:1013C000828F938FA48FB58F168A178A108E118EF5
:1013D00081E0818380E003C086E001C083E0EC9679
:1013E0000FB6F894DEBF0FBECDBFDF91CF911F9136
:1013F0000F9108954F925F926F927F928F929F927A
:10140000AF92BF92CF92DF92EF92FF920F931F9312
:10141000CF93DF934C017B015A01C091CB00D09157
:10142000CC00FA0111821082209709F4A1C08981B1
:1014300080FFA0C08A8D9B8DAC8DBD8D4E895F894C
:10144000688D798D841B950BA60BB70BA70160E007
:1014500070E084179507A607B70708F47C013401EC
:10146000412C42E0542EE114F10409F47CC08E8931
:101470009F89A88DB98DAC01BD0151706627772772
:10148000452B462B472BE1F5DA80DA94AC01BD0100
:1014900039E076956795579547953A95D1F7D422D7
:1014A000C9F4892B8A2B8B2B29F46E8D7F8D88A113
:1014B00099A106C06AA17BA18CA19DA10E9494065E
:1014C000623071058105910508F44FC06AA37BA3C2
:1014D0008CA39DA36AA17BA18CA19DA10E9424063F
:1014E000611571058105910509F43FC0DC01CB014F
:1014F0008D0D911DA11DB11D8EA39FA3A8A7B9A7F6
:101500002E893F893170C201821B930B67018E15B2
:101510009F0508F46C014EA15FA168A579A581140F
:10152000910419F480E090E001C0C30186010E949B
:10153000870481111AC08E899F89A88DB98D8C0D61
:101540009D1DA11DB11D8E8B9F8BA88FB98F6C0C1B
:101550007D1CEC18FD08F501808191818C0D9D1D8D
:101560009183808380CF80E006C0198281E003C030
:1015700086E001C085E0DF91CF911F910F91FF9030
:10158000EF90DF90CF90BF90AF909F908F907F9023
:101590006F905F904F9008954F925F926F927F92FD
:1015A0008F929F92AF92BF92CF92DF92EF92FF9273
:1015B0000F931F93CF93DF936C018B015A01C0915E
:1015C000CB00D091CC00FA0111821082209709F44F
:1015D000CFC0898180FFCEC080746115710581F410
:1015E000811104C089818F7B8983BDC040E050E0B8
:1015F000BA0180E090E00E94ED048111B6C0F2CF04
:1016000081110AC08E899F89A88DB98D88279E7FF8
:101610008E8B9F8BA88FB98F8A8D9B8DAC8DBD8D46
:101620004E895F89688D798D841B950BA60BB70B4E
:10163000A80160E070E084179507A607B70708F4D3
:101640008C01812CF2E09F2E0115110509F48BC04D
:101650008E899F89A88DB98D9C013170232B09F04B
:1016600045C0FA80FA94AC01BD01E9E07695679532
:1016700057954795EA95D1F7F422C9F4892B8A2B1F
:101680008B2B29F46E8D7F8D88A199A106C06AA14C
:101690007BA18CA19DA10E949406623071058105F9
:1016A000910508F462C06AA37BA38CA39DA36AA1E1
:1016B0007BA18CA19DA10E94240661157105810565
:1016C000910509F452C0AB01BC014F0D511D611DC4
:1016D000711D4EA35FA368A779A780E090E00E94E8
:1016E000ED04811142C08981806489838E899F893C
:1016F00091709401281B390B78012017310708F4E9
:1017000079012701612C712CB301A201C6010E944D
:10171000ED0481112AC08E899F89A88DB98D840D11
:10172000951DA61DB71D8E8B9F8BA88FB98FCE0CD4
:10173000DF1C0E191F09F501208131812E0D3F1D7F
:10174000318320839170892B09F07ECF40E050E0F7
:10175000BA0180E090E00E94ED04811106C0898109
:101760008F7B898371CF80E006C0198281E003C03E
:1017700086E001C085E0DF91CF911F910F91FF902E
:10178000EF90DF90CF90BF90AF909F908F907F9021
:101790006F905F904F9008952F923F924F925F927B
:1017A0006F927F928F929F92AF92BF92CF92DF9271
:1017B000EF92FF920F931F93CF93DF9300D000D04F
:1017C000CDB7DEB79B012090CB003090CC00211428
:1017D000310409F4E4C0D10111964C91119740FFF6
:1017E000E0C05A964D915D916D917C915D97690134
:1017F0007C014C155D056E057F0510F46A017B01C7
:10180000F10146885788608C718C168A178A108E71
:10181000118EC114D104E104F10409F4C4C0828022
:10182000912CA12CB12CB9E0880C991CAA1CBB1CD2
:10183000BA95D1F74114510461047104D9F1B1E0B2
:101840004B1A510861087108C701B601615071094E
:1018500081099109A50194010E94351029833A83D9
:101860004B835C83C301B201A50194010E94351032
:1018700089819A81AB81BC8182179307A407B50740
:10188000C8F088279927DC0188199909AA09BB099A
:1018900084219521A621B721F101868B978BA08FFA
:1018A000B18FC81AD90AEA0AFB0A62A173A184A1FE
:1018B00095A139C0D1015E966D917D918D919C91DC
:1018C0009197F10162A373A384A395A32CC00E94F6
:1018D0009406623071058105910508F45CC0D10160
:1018E00016960D911D912D913C91199760177107D6
:1018F0008207930708F04FC0F10162A373A384A38A
:1019000095A306891789208D318D080D191D2A1D73
:101910003B1D56960D931D932D933C935997C818D4
:10192000D908EA08FB088C149D04AE04BF0478F2C1
:10193000F10186889788A08CB18C8C0C9D1CAE1C04
:10194000BF1C868A978AA08EB18E0E9424066115DC
:10195000710581059105F9F075016401A9E0F6941E
:10196000E794D794C794AA95D1F7F101028110E0CA
:1019700001501109222717FD2095322FC022D122B4
:10198000E222F322C60ED71EE81EF91EC6A2D7A277
:10199000E0A6F1A608C0F101118281E005C086E051
:1019A00003C085E001C080E00F900F900F900F9072
:1019B000DF91CF911F910F91FF90EF90DF90CF902B
:1019C000BF90AF909F908F907F906F905F904F905F
:1019D0003F902F900895EF92FF920F931F93CF9314
:1019E000DF93CDB7DEB7AC970FB6F894DEBF0FBE6E
:1019F000CDBF7C01AB018091CB009091CC00892BB5
:101A000069F1CE018196F70193838283BE016F5FF6
:101A10007F4FC7010E94C10781111DC089818823A2
:101A2000B9F08C8584FF1CC04D895E8960E070E050
:101A3000BA01552744270B8D1C8D20E030E0402B48
:101A4000512B622B732BF701448355836683778375
:101A5000C7010E944F06833019F003C086E001C021
:101A600084E0AC960FB6F894DEBF0FBECDBFDF9119
:101A7000CF911F910F91FF90EF900895CF92DF9239
:101A8000EF92FF920F931F93CF93DF93CDB7DEB703
:101A9000AC970FB6F894DEBF0FBECDBF7C016B01D3
:101AA0008091CB009091CC00892B09F4ADC0CE0180
:101AB0008196D70113969C938E93129761157105A9
:101AC00011F083E022C0C7010E944F06A3C0F701B6
:101AD000208131812F70332705E0220F331F0A95B3
:101AE000E1F700E210E0CE0101960E948704811127
:101AF0008DC08981882309F48BC09C85853E91F433
:101B0000C7010E940607811114C0D7011C964D9190
:101B10005D916D917C911F9741155105610571058E
:101B2000B1F605C08E3261F393FDEACF0BC0882376
:101B300049F0F7011486158616861786833011F052
:101B4000811168C0F6013996D7011C964D915D91BF
:101B50006D917C911F97452B462B472B09F447C06D
:101B6000CE010196DF01AE01475F5F4FFC0161913D
:101B7000CF01603269F0653009F465EE9D012F5F99
:101B80003F4FF9016C938417950719F0D901EECFF7
:101B9000FD012985203289F08EE28083CF010296F3
:101BA00021832A85203229F0019622832B85203239
:101BB00011F4FC0102C0238334968C85D60118965B
:101BC0008C9318974D8D5E8D6F8D78A14D935D939D
:101BD0006D937C931397898D9A8D15969C938E9314
:101BE00014978F89988D17969C938E9316971082D1
:101BF000C7010E940607833069F4F7011486158631
:101C00001686178680E006C086E004C081E091CF8A
:101C100083E08FCFAC960FB6F894DEBF0FBECDBF7A
:101C2000DF91CF911F910F91FF90EF90DF90CF90B8
:101C3000089580EB87BB82E58DB91EB8089584E1D5
:101C400091E00197F1F7000008958FEF8FB9779B2E
:101C5000FECF8FB108958FB9779BFECF8FB10895D6
:101C6000BB9A8FE295E00197F1F7BB98E1ECF0E0C9
:101C70003197F1F700C086B3EDE6F4E03197F1F764
:101C800000C088700895BB9A882349F086E18A9540
:101C9000F1F70000BB988CEE8A95F1F708958DED71
:101CA0008A95F1F70000BB9885E28A95F1F70895CF
:101CB000BB9A86E18A95F1F70000BB9891E29A956C
:101CC000F1F7000086B39BEC9A95F1F788700895C0
:101CD0001F93CF93DF93182FC8E0D0E0812F81703E
:101CE0000E94430E169521972097C1F7DF91CF915F
:101CF0001F9108950F931F93CF93DF9308E010E097
:101D0000C0E0D0E0D595C7950E94580E8111C068FB
:101D10000150110901151105A9F78C2FDF91CF9101
:101D20001F910F910895DA98DB9A2BB3982F907F2B
:101D30002F70922B9BBBECECFAE03197F1F700C0CF
:101D40000000DB98ECECFAE03197F1F700C00000FE
:101D5000DB9A2BB3F0E18F9FC00111242F70282B49
:101D60002BBB8CEC9AE00197F1F700C00000DB98E8
:101D7000ECECFAE03197F1F700C0000008958FEF26
:101D80008ABB83E30E94930E82E30E94930E88E253
:101D90000E94930E88E00E94930E81E00E94930EB1
:101DA00086E00E94930E8FE00C94930EDA9ADB9AF1
:101DB0002BB3982F907F2F70922B9BBBECECFAE00B
:101DC0003197F1F700C00000DB98ECECFAE03197B6
:101DD000F1F700C00000DB9A2BB3F0E18F9FC00148
:101DE00011242F70282B2BBB8CEC9AE00197F1F774
:101DF00000C00000DB98ECECFAE03197F1F700C08E
:101E000000000895805890E4699F800D11240C947F
:101E1000930E0F931F93CF93DF9300D0CDB7DEB710
:101E200049835A830E94020F4981042F5A81152F3A
:101E3000F80181918F01882319F00E94D60EF8CF06
:101E40000F900F90DF91CF911F910F91089581E036
:101E50000C94930E0E94D60E80E090E008958F922D
:101E60009F92AF92BF92CF92DF92EF92FF920F9329
:101E70001F93CF93DF93CDB7DEB7EE970FB6F894ED
:101E8000DEBF0FBECDBF0E94BF0E8CE00E94930E3E
:101E9000CE0101960E948208882329F060E670E056
:101EA0008EE690E0CBC08FE790E00E949E098823E9
:101EB00029F060E670E08EE890E0C0C07E012BE281
:101EC000E20EF11CAE01435C5F4F60E170E0C701C0
:101ED0000E94FA09882329F060E670E08FE990E01B
:101EE000ADC060E070E0CB010E94CC0B00E010E0E0
:101EF0003EEA832E30E0932E49EBA42E40E0B42E30
:101F000050E6C52E50E0D52E0E94300E81112BC018
:101F10008CEC0E94680E84E40E94680E8FEF9FEBA9
:101F200021E2815090402040E1F700C000000E9473
:101F3000300E811118C08CEC0E94680E8EEB0E944E
:101F4000680E0E947A0E8093D0000E947A0E8093D1
:101F5000CF0090E0982F88272091D000822B90937B
:101F6000CE008093CD006091CD007091CE0080E0D6
:101F700090E00E94A81020E030E040E85DE30E947D
:101F8000E5109F938F937F936F931F930F939F926F
:101F90008F92FF92EF920E94F412AE01455C5F4F68
:101FA000BC01C7010E94CC0A60E081E00E94020FE0
:101FB0006091CD007091CE0080E090E00E94A8106A
:101FC00020E030E040E85DE30E94E5109F938F93AE
:101FD0007F936F93BF92AF92DF92CF920E9487124E
:101FE0008FED0E94D60E60E670E083E490E00E94E0
:101FF00099128FEF9FEB21E2815090402040E1F752
:1020000000C000000F5F1F4F0FB6F894DEBF0FBE79
:10201000CDBF0A30110509F077CFAE01455C5F4FA7
:1020200060E070E080E090E00E94CC0A80E090E008
:102030000E94820860E670E081EC90E00E94CB1282
:1020400080E090E0EE960FB6F894DEBF0FBECDBFF5
:10205000DF91CF911F910F91FF90EF90DF90CF9084
:10206000BF90AF909F908F900895A1E21A2EAA1B67
:10207000BB1BFD010DC0AA1FBB1FEE1FFF1FA21738
:10208000B307E407F50720F0A21BB30BE40BF50B35
:10209000661F771F881F991F1A9469F760957095BE
:1020A000809590959B01AC01BD01CF0108950E94E0
:1020B0009910A59F900DB49F900DA49F800D911D28
:1020C000112408952F923F924F925F926F927F92C8
:1020D0008F929F92AF92BF92CF92DF92EF92FF9238
:1020E0000F931F93CF93DF93CDB7DEB7CA1BDB0BE4
:1020F0000FB6F894DEBF0FBECDBF09942A88398889
:1021000048885F846E847D848C849B84AA84B9848F
:10211000C884DF80EE80FD800C811B81AA81B9819B
:10212000CE0FD11D0FB6F894DEBF0FBECDBFED01AF
:102130000895A29FB001B39FC001A39F700D811DA0
:102140001124911DB29F700D811D1124911D0895C0
:10215000E89409C097FB3EF4909580957095619541
:102160007F4F8F4F9F4F9923A9F0F92F96E9BB27F7
:102170009395F695879577956795B795F111F8CF73
:10218000FAF4BB0F11F460FF1BC06F5F7F4F8F4FDE
:102190009F4F16C0882311F096E911C0772321F0D4
:1021A0009EE8872F762F05C0662371F096E8862F6C
:1021B00070E060E02AF09A95660F771F881FDAF7C3
:1021C000880F9695879597F908950BD078C069D0B8
:1021D00028F06ED018F0952309F05AC05FC0112482
:1021E000A2C07ED0A0F3959FD1F3950F50E0551F6C
:1021F000629FF001729FBB27F00DB11D639FAA275C
:10220000F00DB11DAA1F649F6627B00DA11D661FAA
:10221000829F2227B00DA11D621F739FB00DA11DCB
:10222000621F839FA00D611D221F749F3327A00D85
:10223000611D231F849F600D211D822F762F6A2F21
:1022400011249F5750408AF0E1F088234AF0EE0FA6
:10225000FF1FBB1F661F771F881F91505040A9F7B3
:102260009E3F510570F014C05EC05F3FECF3983E96
:10227000DCF3869577956795B795F795E7959F5F1A
:10228000C1F7FE2B880F911D9695879597F90895B4
:1022900097F99F6780E870E060E008959FEF80EC19
:1022A000089500240A9416161706180609060895BC
:1022B00000240A9412161306140605060895092E22
:1022C0000394000C11F4882352F0BB0F40F4BF2B91
:1022D00011F460FF04C06F5F7F4F8F4F9F4F0895D1
:1022E00057FD9058440F551F59F05F3F71F04795C7
:1022F000880F97FB991F61F09F3F79F087950895AC
:10230000121613061406551FF2CF4695F1DF08C0CA
:10231000161617061806991FF1CF869571056105E7
:1023200008940895E894BB2766277727CB0197F98F
:102330000895283008F027E03327DA01990F311D7E
:1023400087FD916000966105710539F432602E5F5A
:102350003D9330E32A95E1F708959F3F30F08038B0
:102360007105610509F03C5F3C5F3D93913008F0D9
:102370008068911DDF93CF931F930F93FF92EF928D
:10238000192F987F9695E92F96959695E90FFF2737
:10239000EA54FF4F99273327EE24FF24A701E701D2
:1023A00005900894079428F4360FE71EF81E491F7D
:1023B000511D660F771F881F991F0694A1F705907E
:1023C000079428F4E70EF81E491F561FC11D770F0A
:1023D000881F991F661F0694A1F70590079428F49B
:1023E000F80E491F561FC71FD11D880F991F661F62
:1023F000771F0694A1F70590079420F4490F561F04
:10240000C71FD81F990F661F771F881F0694A9F74B
:1024100084911095177041F0D695C79557954795BB
:10242000F794E7941A95C1F7ECE5F0E068941590FD
:10243000159135916591959105907FE27395E1181D
:10244000F10A430B560BC90BD009C0F7E10CF11E82
:10245000431F561FC91FD01D7EF4703311F48A9597
:10246000E6CFE894015030F0080F0AF40027021775
:1024700008F4202F2395022F7A3328F079E37D93F7
:102480002A95E9F710C07D932A9589F606949795C9
:102490006795379517951794E118F10A430B560B7A
:1024A000C90BD00998F023957E9173957A3308F083
:1024B00070E37C932013B8F77E9170617D9330F0C8
:1024C000839571E37D9370E32A95E1F71124EF90F2
:1024D000FF900F911F91CF91DF91992787FD9095E4
:1024E0000895FC010590615070400110D8F7809567
:1024F00090958E0F9F1F0895FC01615070400190D0
:102500000110D8F7809590958E0F9F1F0895A0E039
:10251000B0E0EDE8F2E10C947210AE01475F5F4F5E
:102520006F8178858D819E810E94CA00E2E00C94C3
:102530008E100F931F93CF93DF93182F092FEB016A
:102540008B8181FD03C08FEF9FEF20C082FF10C001
:102550004E815F812C813D81421753077CF4E881D5
:10256000F9819F012F5F3F4F39832883108306C075
:10257000E885F985812F0995892B29F72E813F81DF
:102580002F5F3F4F3F832E83812F902FDF91CF917D
:102590001F910F910895EF92FF920F931F93CF9386
:1025A000DF938B01DB0113962C9121FF16C0EC0108
:1025B000E12CF12C8991882371F0D8011896ED91C6
:1025C000FC911997B8010995892BA1F3EE24EA949F
:1025D000FF24FA94EFCFC70102C08FEF9FEFCDB772
:1025E000DEB7E6E00C948A10AEE0B0E0EAEFF2E18C
:1025F0000C9470100D891E8986E08C831A830983E0
:102600008FEF9FE79E838D83AE01475E5F4F6F899B
:10261000788DCE0101960E94CA00EF81F885E00F07
:10262000F11F10822E96E4E00C948C10FA01AA2778
:10263000283051F1203181F1E8946F936E7F6E5F05
:102640007F4F8F4F9F4FAF4FB1E03ED0B4E03CD0B3
:10265000670F781F891F9A1FA11D680F791F8A1F96
:10266000911DA11D6A0F711D811D911DA11D20D0FD
:1026700009F468943F912AE0269F11243019305DB7
:102680003193DEF6CF010895462F4770405D4193A8
:10269000B3E00FD0C9F7F6CF462F4F70405D4A33F5
:1026A00018F0495D31FD4052419302D0A9F7EACFBD
:1026B000B4E0A6959795879577956795BA95C9F7EC
:1026C00000976105710508959B01AC010A2E0694DF
:1026D0005795479537952795BA95C9F7620F731F98
:0C26E000841F951FA01D0895F894FFCFE3
:1026EC0000000002000000002A0F00000000426CF5
:1026FC006164206D6F6E746F77616E696120002F5D
:10270C00646174612F64616E652E74787400426C20
:10271C006164206F7477696572616E696120004233
:10272C006C616420637A7974616E69612000256440
:10273C000925302E326C660A0025302E326C66204C
:08274C0000476F746F77650010
:00000001FF
