:100000000C942A000C943E000C943C000C943C0090
:100010000C943C000C943C000C943C000C943C0070
:100020000C943C000C943C000C943C000C943C0060
:100030000C943C000C943C000C943C000C943C0050
:100040000C943C000C943C000C943C000C943C0040
:100050000C943C0011241FBECFE5D8E0DEBFCDBF1D
:1000600020E0A0E6B0E001C01D92A136B207E1F7A2
:100070000E945D000C9473000C9400001F920F927C
:100080000FB60F9211248F939F938FEF97ED0197E7
:10009000F1F700C0000080916000809585BB8091E1
:1000A00060008F5F80936000829BFECF9F918F9155
:1000B0000F900FBE0F901F9018958BB780648BBF69
:1000C00085B7826085BF8FEF84BB82BB78942FEFAA
:1000D0003FE389E191E02150304080409040D9F7E2
:0A00E00000C00000F4CFF894FFCF39
:00000001FF
