:100000000C942A000C9434000C9434000C943400AA
:100010000C9434000C9434000C9434000C94340090
:100020000C9434000C9434000C9434000C94340080
:100030000C9434000C9434000C9434000C94340070
:100040000C9434000C9434000C9434000C94340060
:100050000C94340011241FBECFE5D8E0DEBFCDBF25
:100060000E9436000C9445000C9400008FEF8ABB70
:100070008BB380958BBB2FEF8FED90E121508040AB
:0E0080009040E1F700C00000F3CFF894FFCFEE
:00000001FF
